:020000040800F2
:1000000000000220F1020008ED020008DD4A0008AD
:10001000ED020008ED020008ED02000800000000FB
:10002000000000000000000000000000ED020008D9
:10003000ED02000800000000ED020008614A00081F
:10004000ED020008ED020008ED020008ED020008D4
:10005000ED020008ED020008ED020008ED020008C4
:10006000ED020008ED020008ED02000869460008F4
:1000700075460008C5350008814600088D46000811
:10008000ED020008993B0008ED020008ED020008AF
:10009000ED020008ED020008ED020008ED02000884
:1000A000ED020008ED020008ED020008ED02000874
:1000B000ED020008ED020008ED020008CD3B00084B
:1000C000ED020008D93B0008ED020008F5D5000854
:1000D000ED020008ED020008ED020008ED02000844
:1000E000ED020008ED02000800000000ED0200082B
:1000F000ED020008ED020008ED020008ED02000824
:10010000ED020008ED020008ED020008ED02000813
:10011000ED020008ED020008ED020008ED02000803
:10012000ED020008ED02000801D6000835D60008EF
:10013000ED020008ED020008ED020008ED020008E3
:1001400000000000000000000000000000000000AF
:10015000ED020008ED020008ED020008ED020008C3
:10016000E53B0008ED020008714A0008954A0008C6
:10017000ED020008B94A0008ED020008ED0200088F
:10018000ED020008ED020008ED020008ED02000893
:10019000ED020008ED020008ED020008ED02000883
:1001A000ED020008ED020008ED020008ED02000873
:1001B00089430008ED020008ED020008ED02000886
:1001C000ED020008ED020008ED020008ED02000853
:1001D000ED020008ED020008ED020008ED02000843
:1001E000ED020008ED020008ED020008ED02000833
:1001F000ED020008ED020008ED020008ED02000823
:10020000ED020008ED020008ED020008ED02000812
:10021000ED020008ED020008ED020008ED02000802
:10022000ED020008ED020008ED02000800000000E9
:10023000ED020008ED02000800000000ED020008D9
:10024000ED020008ED020008ED020008ED020008D2
:10025000ED020008ED020008ED020008ED020008C2
:10026000ED020008ED020008ED020008ED020008B2
:10027000ED020008ED020008ED0200080000000099
:10028000ED020008ED020008ED0200080000000089
:0802900000000000ED0200086F
:1002980010B5054C237833B9044B13B10448AFF3B8
:1002A80000800123237010BDF80100240000000025
:1002B8009836010808B5034B1BB103490348AFF34F
:1002C800008008BD00000000FC01002498360108E9
:1002D80010F8012B11F8013B012A28BF9A42F7D0E8
:1002E800D01A7047FEE700BF0B480C4A904203D073
:1002F800121A0B4910F0EAFD0A480B4A904203D043
:10030800121A002110F0F0FD04F004FE10F0B2FD06
:1003180001F0CAF9FEE700BF00000024F401002440
:10032800B8360108F801002478240024704700BF7B
:10033800704700BF704700BF704700BF704700BFDD
:100348000022002380ED080BC0E90E23012070472E
:10035800002070470020704790ED107B90ED082B2F
:1003680090ED121B90ED0A4BA2EE470B90ED043B6B
:1003780080ED127B90ED025B27EE037BB0EE406BC5
:1003880090ED062BA4EE416BA5EE067B80ED106B7D
:10039800B0EE470BA1EE020B704700BF704700BFDD
:1003A80000207047704700BF0020704710B5044612
:1003B8002022002148302DED028BB0EE408B84EDD9
:1003C8002E0B10F091FD2022002104F5807084EDA1
:1003D8005C8B10F089FD0120BDEC028B10BD00BFC5
:1003E80020EE000B90ED0E7B10B5B4EEC07B0446FA
:1003F80037EE407BF1EE10FA30D590ED0A6BA6EEA1
:10040800070BB5EEC00BF1EE10FA09DD9FED1A7B74
:10041800B4EEC70BF1EE10FA02D59FED197B08E098
:100428009FED177BB4EEC70BF1EE10FA1BD480FEDC
:10043800077BB0EE470BB6EE001B84ED0E7B0EF08B
:100448007BFE237EB0EE407B2BB10FF011FAB3EEAA
:10045800047B20EE077BB0EE470B10BD90ED0C6BD4
:10046800A6EE070BCDE79FED086BB4EEC60BF1EED9
:1004780010FADEDCDBE700BF9B630A0000001038DF
:1004880000000000000000009B630A00000010B894
:1004980090ED087BB4EE407BF1EE10FA00D1704786
:1004A80090ED027B80ED080B10B520EE070B04469B
:1004B8002DED048B9FED0E9B9FED0F8B20EE090B0E
:1004C80088EE000B0EF0E8FC94ED047B94ED086BCD
:1004D80084ED0A0B27EE060B20EE090B88EE000BC5
:1004E8000EF0DAFCBDEC048B84ED0C0B10BD00BFE4
:1004F800FCA9F1D24D62503F854550D950FDEFBF60
:1005080090ED107B38B52DED068B80ED160B27EEA0
:10051800000B002200230125044680F850509FED6F
:1005280012AB9FED139BC0E91C2320EE0A0B90ED44
:10053800128B89EE000B0EF0AFFC94ED167B84ED68
:10054800180B84ED128B28EE070B20EE0A0B89EEB0
:10055800000B0EF0A1FC2846BDEC068B84ED1A0BAF
:1005680038BD00BFAFF30080FCA9F1D24D62503F07
:10057800854550D950FDEFBF38B5044620220021EB
:10058800503001252DED088BB0EE409B84ED300BEB
:1005980010F0AAFC0021202204F5847084ED5C9BF5
:1005A80010F0A2FC0022002384F8C85194ED6E0BD1
:1005B8009FED13BB9FED14AB20EE090B84ED749BEC
:1005C800C4E97A2320EE0B0B94ED708B8AEE000BB6
:1005D8000EF062FC94ED747B84ED760B84ED708BE9
:1005E80028EE070B20EE0B0B8AEE000B0EF054FCE6
:1005F8002846BDEC088B84ED780B38BDAFF300803E
:10060800FCA9F1D24D62503F854550D950FDEFBF4E
:10061800037903B970479FED346B9FED357B10B5B7
:1006280020EE060B04462DED068B9FED339B20EE46
:10063800070B0FF0BDF89FED327B94ED121B94ED84
:100648000A3B20EE070B94ED14AB94ED0C4B80EEB7
:10065800098B94ED066B94ED045B94ED247B21EEFD
:10066800066B94ED262B9FED289B84ED141BB0EEB2
:10067800480BA3EE410B94ED421B94ED543BA4EEC2
:100688004A0B94ED384BA0EE056B94ED085B84EDB6
:10069800120B94ED400BAAEE056B84ED420B94ED22
:1006A800525B27EE067B94ED326BA8EE027B94ED4D
:1006B8003A2B27EE097BB0EE478BA4EE408B94EDE6
:1006C800344B20EE040BA2EE418BA8EE060B94ED02
:1006D800366B84ED408BBDEC068BA1EE060B25EE48
:1006E800000BA7EE030B10BD000000A09999154060
:1006F80048E17A14AE47F53F00000080AAFFEF3FBB
:10070800666666666666D63F333333333333D33F24
:1007180020EE007B90ED1C6B10B5B4EEC67B044652
:1007280036EE476BF1EE10FA2DED068BB0EE408BEE
:1007380058DD90ED185BA5EE067BB5EEC07BF1EEBB
:1007480010FA09DD9FED306BB4EEC67BF1EE10FABE
:1007580002D59FED2F6B08E09FED2D6BB4EEC67BA5
:10076800F1EE10FA46D487FE066BB6EE001BB0EE2B
:10077800460B84ED1C6B0EF0DFFC94F85030B0EEA5
:10078800401B2BB10FF074F8B3EE041B20EE011BD5
:1007980094ED027BB4EEC17BF1EE10FA27DA31EE6C
:1007A800475B94ED046B85EE060B30EE070BB3EE5A
:1007B80004AB30EE411BB2EE040B81EE0A1B0EF0C7
:1007C800BBFCB0EE409BB2EE040B94ED0A1B81EE2D
:1007D8000A1B0EF0B1FC28EE098B28EE000BBDECCD
:1007E800068B10BD90ED1A5BA5EE067BA5E7B0EE73
:1007F800410BDCE79FED085BB4EEC57BF1EE10FA28
:10080800B3DCB0E7AFF300809B630A000000103848
:1008180000000000000000009B630A00000010B800
:10082800437A10B504462DED068BB0EE408BCBB362
:1008380090ED019AB7EEC99A29EE000B0EF0B8FFB9
:10084800B0EE408BB0EE490B0EF0B2FF88EE002BF5
:100858009FED6B8B94ED149B94ED0C4B94ED161B54
:1008680094ED0E5B94ED087B94ED066B94ED260BEE
:1008780029EE077B94ED283B84ED169B22EE082B8E
:10088800B0EE428BA4EE498BA5EE418BA8EE067B19
:1008980094ED0A6B84ED148BA1EE067B20EE078B9A
:1008A800A2EE038BA37A33B9237A7BBBB0EE480B55
:1008B800BDEC068B10BD94ED429B94ED3A7BB0EEF7
:1008C800480B237A94ED441BA7EE490B94ED3C2B7F
:1008D80094ED366B94ED343B94ED384B29EE066B72
:1008E800A2EE410B94ED545B94ED567B84ED449B52
:1008F800A0EE036B84ED420BA1EE046B25EE066BB4
:10090800A8EE076BB0EE468B002BCFD028EE087B05
:1009180094ED7A6BB4EEC67B36EE476BF1EE10FAC7
:1009280050DC94ED785BA5EE067BB5EEC07BF1EE6E
:1009380010FA50DD9FED346BB4EEC67BF1EE10FA81
:1009480049D59FED336BB6EE001BB0EE460B84ED38
:100958007A6B0EF0F1FB94F8C831B0EE401B2BB166
:100968000EF086FFB3EE041B20EE011B94ED607BB6
:10097800B4EEC17BF1EE10FA37DA31EE475B94ED55
:10098800626B85EE060B30EE070BB3EE04AB30EE70
:10099800411BB2EE040B81EE0A1B0EF0CDFBB0EE4C
:1009A800409BB2EE040B94ED681B81EE0A1B0EF01F
:1009B800C3FB28EE098B28EE008BB0EE480BBDEC8C
:1009C800068B10BD94ED765BA5EE067BB5EEC07B7D
:1009D800F1EE10FAAEDC9FED0E6BB4EEC67BF1EED5
:1009E80010FA05D487FE066BADE7B0EE410BCCE7F5
:1009F8009FED095BB4EEC57BF1EE10FAA3DCF1E7DD
:100A0800524233CFB909E03F9B630A000000103817
:100A180000000000000000009B630A00000010B8FE
:100A280038B500F1600504463822002128462DED2E
:100A38000C8B10F059FAB3EE041BB2EE040B94EDD4
:100A4800267B9FED414B94ED2C6B94ED2A5B27EEB2
:100A5800047B85EE011B87EE06CB94ED288B0EF008
:100A68006BFBB7EE007BB0EE40AB38EE088B30EE98
:100A7800077BB1EE005B9FED366B85EE07DB8CEEF6
:100A8800080BB4EEC60BF1EE10FA58DC0EF060FE5F
:100A9800B0EE406BB7EE00BBB6EE009BB0EE4C0B71
:100AA800B0EE4B7BB0EE4B5B3AEE4BABADEE467B1C
:100AB800ADEE065B27EE097B87EE058B0EF008FE90
:100AC800284604F1080305F13002B8EE005B9FEDFB
:100AD800227B84ED24BB84ED22AB84ED1A7B38EEB7
:100AE800097B39EE489B38EE088B27EE000BB1EEF8
:100AF800496B84ED189B20EE050B84ED208B84ED6B
:100B08001C6B84ED1E0BD0F800C0103050F80C5C44
:100B1800103350F8084C50F8041C904243F810CC9D
:100B280043F80C5C43F8084C43F8041CEBD101680B
:100B38004268012019605A60BDEC0C8B38BD9FEDEE
:100B4800086BA7E7AFF30080182D4454FB21194028
:100B58000A5EDA5C48E0F73F000000000000000091
:100B68001F4DCCAA9369294038B500F160050446A9
:100B78003822002128462DED068B10F0B5F9B3EE8A
:100B8800045BB2EE040BB7EE009B94ED267B9FED61
:100B9800384B94ED2A6B94ED281B27EE047B81EEED
:100BA800051B87EE06AB0EF0C7FAB6EE006B30EE0B
:100BB800099BB0EE408BB5EE005B9FED2F7B29EED5
:100BC800059B2AEE060BB4EE470BF1EE10FA4CD05B
:100BD8000EF0BEFDB7EE007B2846B6EE005B04F1D2
:100BE8000803BEEE004B05F13002B0EE472BB0EE25
:100BF800473B38EE478BA9EE402BA9EE003B9FED13
:100C0800206B84ED247B84ED228B84ED1C6B84EDBA
:100C1800206B82EE036B36EE077BB1EE466B27EE58
:100C2800055B27EE047B84ED1E6B84ED185B84ED79
:100C38001A7BD0F800C0103050F80C5C103350F814
:100C4800084C50F8041C904243F810CC43F80C5C54
:100C580043F8084C43F8041CEBD1016842680120B2
:100C680019605A60BDEC068B38BD9FED070BB1E7E4
:100C7800182D4454FB211940182D4454FB21F93FE9
:100C880000000000000000001F4DCCAA9369294015
:100C980090ED017AD1ED007AB4EE677A10B5F1EEF5
:100CA80010FA04462DED068B05D183684A68534037
:100CB80033F07F437ED0231D994200F0918008795C
:100CC8004A798B79C4ED017A20726272A372F5EECB
:100CD800407AF1EE10FA01D14F4B636004F1100035
:100CE8009FED417B94ED2A6BB4EE476BF1EE10FA61
:100CF80063D00022494BC4E92A233DA3D3E900234A
:100D0800C4E92C230022464BC4E92E23FFF788FEB2
:100D180004F1C8009FED387B94ED586BB4EE476B37
:100D2800F1EE10FA08D1BAEE0C7B94ED5A6BB4EEE2
:100D3800476BF1EE10FA09D000223A4BC4E9582368
:100D48000022394BC4E95A23FFF70EFFB3EE048B98
:100D58000022364B002036499FED296B94ED740B29
:100D68009FED29AB9FED2A9B20EE060B84ED646B6B
:100D7800C4E9622320EE0A0BC4E96823C4E96001D0
:100D880084ED6E6B89EE000B84ED668B84ED708BC1
:100D98000EF082F894ED747B84ED760B84ED708B05
:100DA80027EE080B20EE0A0B89EE000B0EF074F804
:100DB80084ED780BBDEC068B10BD9FED0D7B94ED9B
:100DC8002C6BB4EE476BF1EE10FA92D1B2EE007BC9
:100DD80094ED2E6BB4EE476BF1EE10FA89D197E7DC
:100DE800F0EE477A73E700BF0000000000005940AA
:100DF8009A9999999999D93F0000000000E0854097
:100E08000000000000C06240FCA9F1D24D62503FD2
:100E1800854550D950FDEFBF0AD7233C0000594003
:100E28000000204000E0854000002CC00000084081
:100E3800000045C0000000002DE9F04FDFF8D09316
:100E480007460C46E048002190462DED088B8BB0F4
:100E580002F058FB4846B0EE408A02F01DF9DB4824
:100E680002F01AF9DA4802F017F9DA4802F014F930
:100E7800D94A99F80A5005AB92E80300FF2DD74AE2
:100E880083E80300009200F05E839DF819208DF836
:100E98001920CE4A927AFF2AD14A019200F04A8359
:100EA8009DF81A208DF81A20C94A927AFF2ACD4A4D
:100EB800029200F036839DF8182019464FF07E53B1
:100EC800C94805938DF81820FFF7E2FEC14BDFF8FB
:100ED80044B39B7A9BF80450FF2BC44B039300F058
:100EE80019839BF80430AB4233D08BF804509FED44
:100EF8009E7B9BED286BB4EE476BF1EE10FA00F089
:100F0800F482BB489FED987B8BED287B9FED987B07
:100F18008BED2A7BB2EE047B8BED2C7BFFF780FDFB
:100F28009FED957B9BED566BB4EE476BF1EE10FA97
:100F380000F0C682AF489FED907B8BED567B9FED0E
:100F4800907B8BED587B9FED907B8BED5A7BFFF769
:100F580067FD002D40F0A5829DF8193000EE103A8B
:100F6800B8EE400AA44801F0FBFF9DF81A30A348E8
:100F780000EE103AB8EE400A01F0F2FF9DF8183082
:100F88009F4800EE103AB8EE400A01F0E9FF07EE7C
:100F9800905A9C48B8EE670A01F0E2FF964801F0C3
:100FA800F1FF964801F0EEFF954801F0EBFF9548F8
:100FB80001F0E8FF944802F047F8B8F1000F00F09C
:100FC800618104340026914DDFF81CA297ED009A48
:100FD800B1EE042A28EE099A95ED0E6B29EE029AD5
:100FE800B7EEC99A29EE097BB4EEC67B36EE476B9D
:100FF800F1EE10FA40F37A8195ED0A5BA5EE067BD7
:10100800B5EEC07BF1EE10FA40F365819FED606BA1
:10101800B4EEC67BF1EE10FA40F15D819FED5E6B98
:10102800B6EE001BB0EE460B85ED0E6B0EF084F8A5
:101038002B7EB0EE407B2BB10EF01AFCB3EE047B96
:1010480020EE077B002E00F0EF819AF80930CBB331
:101058009AED01AAB7EECAAA29EE0A0B0EF0A8FB70
:10106800B0EE409BB0EE4A0B0EF0A2FB89EE001BDF
:101078009FED4BAB9AED140B9AED0C3B9AED169B3A
:101088009AED0E4B9AED087B9AED065B9AED0A6B8A
:1010980020EE077B9AED262B8AED160B21EE0A1B14
:1010A800B0EE41ABA3EE40ABA4EE49ABAAEE057B94
:1010B8008AED14ABA9EE067B22EE079B9AED287BFE
:1010C800A1EE079B9AF80A30002B40F014819AF899
:1010D8000830002B40F03C81B7EEC99B9BF80430E8
:1010E800B7EEC97A04ED019A002B00F0BF809FED9E
:1010F8002E6B9FED2F0B9FED1EAB27EE067B27EE89
:10110800000B0EF055FB9FED2C7B9FED2D3B9BEDCF
:10111800122B20EE070B9BED0A4B9BED149B80EEE8
:10112800031B9BED0C5B9BED067B9BED046B9BED22
:10113800400B22EE077B8BED142BB0EE413BA4EE67
:10114800423B9BED384B9BED322BA5EE493B9BED8B
:10115800425B8BED420BA3EE067B9BED086B8BEDA0
:10116800123B59E0AFF30080000000000078914086
:10117800333333333333D33F00000000009BB24096
:10118800333333333333E33F9A9999999999174015
:101198009B630A00000010380000000000000000F7
:1011A800524233CFB909E03F000000A09999154099
:1011B80048E17A14AE47F53F666666666666D63FCE
:1011C80000000080AAFFEF3F7804002414020024E6
:1011D800DC0600243005002474020024D90600240B
:1011E800D8060024DB06002470020024DA06002456
:1011F800680500242006002450020024240200244C
:10120800EC060024400500249C040024F00400247B
:1012180040020024600500249BED3A3BA9EE067BC2
:101228009BED249B9BED346B20EE066B29EE077B30
:101238009BED269BA1EE097B9BED361B27EE0A7BD7
:10124800B0EE479BA4EE409BA3EE459BA9EE026B34
:101258008BED409BA5EE016B9BED525B25EE066B7B
:101268009BED545BA7EE056BB7EEC69B0236234693
:1012780004ED019A0837B04504F1080483ED009A9B
:101288003FF6A4AE99F80A00BF4BA0F1FF00009CFE
:10129800997ABE4BB0FA80F0A1F1FF019A7A400921
:1012A800BB4BB1FA81F1A2F1FF0220709B7A490988
:1012B8000198B2FA82F2A3F1FF0352090170B3FA5E
:1012C80083F302995B090A70039A13700BB0BDECA3
:1012D800088BBDE8F08F9FEDA06BB4EEC67BF1EEF6
:1012E80010FA00F18E8087FE066B99E695ED0C5B8F
:1012F800A5EE067B84E69AED420B9AED3A7BB0EEBA
:10130800492B9AF808309AED44ABA7EE402B9AED9A
:101318003C1B9AED366B9AED343B9AED384B20EE38
:10132800066BA1EE4A2B9AED545B9AED567B8AED3B
:10133800440BA2EE036B8AED422BAAEE046B25EE5A
:10134800066BA9EE076BB0EE469B002B3FF4C4AECC
:1013580029EE097B9AED7A6BB4EEC67B36EE476BC5
:10136800F1EE10FA40F385809AED765BA5EE067BE8
:10137800B5EEC07BF1EE10FA4CDD9FED796BB4EE63
:10138800C67BF1EE10FA45D59FED736BB6EE001BE8
:10139800B0EE460B8AED7A6B0DF0CEFE9AF8C831A6
:1013A800B0EE401B2BB10EF063FAB3EE041B20EE37
:1013B800011B9AED607BB4EEC17BF1EE10FA5DDAA9
:1013C80031EE475B9AED626B85EE060B30EE070B4C
:1013D80030EE411BB3EE04BBB2EE040B81EE0B1BE7
:1013E8000DF0AAFEB0EE40ABB2EE040B9AED681B0E
:1013F80081EE0B1B0DF0A0FE29EE0A9B29EE009B47
:101408006AE69FED595BB4EEC57BF1EE10FA3FF743
:1014180007AE68E79FED506BB4EEC67BF1EE10FAAD
:101428002FD487FE066BB1E7B7EEC77BDFED597A9D
:10143800B4EEE77AF1EE10FA06DDFBEE097AB4EEC7
:10144800E77AF1EE10FA34D4FBEE097AB4EEE77AD3
:10145800F1EE10FA1EDCDFED500AB6EE001AB0EE1F
:10146800600A07A803F090FE07A94C4801F0D6FDD2
:10147800EBE59AED785BA5EE067B79E7B0EE410BDC
:10148800A6E79FED395BB4EEC57BF1EE10FA3FF7A6
:101498007DAFC6E79FED401AB6EE000AF0EE410AAE
:1014A800DFE700239FED3C0AADF818308DF81A30BD
:1014B80058E59FED391AF6EE000AB0EE410AD0E77A
:1014C8009FED2B7B9BED586BB4EE476BF1EE10FA5A
:1014D8007FF430AD9FED287B9BED5A6BB4EE476BE4
:1014E800F1EE10FA7FF426AD33E59FED257B9BEDF9
:1014F8002A6BB4EE476BF1EE10FA7FF402ADB2EE50
:10150800047B9BED2C6BB4EE476BF1EE10FA7FF485
:10151800F8AC05E51B78002B7FF4E3AC85F00105FA
:10152800DFE41278002A7FF4C6AC9DF8182082F018
:101538000102C2E41278002A7FF4B2AC9DF81A20A6
:1015480082F00102AEE41278002A7FF49EAC9DF886
:10155800192082F001029AE4000000000000000057
:101568009B630A00000010389B630A00000010B853
:10157800333333333333E33F9A9999999999174021
:10158800333333333333D33F14020024DC060024CF
:1015980030050024000020C2000000009C04002444
:1015A80002790B789A4264D0021D90ED286B9FED6A
:1015B800327B9142B4EE476B10B518BF0371F1EE60
:1015C80010FA044600F1080040D02BA3D3E9002309
:1015D800C4E9282330A3D3E90023C4E92A2300223D
:1015E8002F4BC4E92C23FFF71BFA04F1C0009FED31
:1015F800247B94ED566BB4EE476BF1EE10FA12D0E3
:101608001FA3D3E90023C4E956231FA3D3E900236A
:10161800C4E958231EA3D3E90023C4E95A23BDE82B
:101628001040FFF7FDB99FED187B94ED586BB4EEB1
:10163800476BF1EE10FAE3D19FED157B94ED5A6BF1
:10164800B4EE476BF1EE10FADAD110BD9FED127BC4
:1016580094ED2A6BB4EE476BF1EE10FAB5D1B2EE09
:10166800047B94ED2C6BB4EE476BF1EE10FAACD121
:10167800BBE77047AFF3008000000000007891409E
:1016880000000000009BB240333333333333E33F71
:101698009A99999999991740333333333333D33F10
:1016A800000024400000000070B500257E487F4CF3
:1016B80001262DED088B96B000F052FA29467A489B
:1016C80000F0F2FA0421784800F06AFA764800F04F
:1016D80063FA0720B0EE408A00F044FA03469FED13
:1016E800740A2A467348ADF80C30039901F014FCCB
:1016F800082000F037FAADF810009FED6D0A2A4671
:1017080004996D4801F008FC092000F02BFAADF8A7
:1017180014009FED670A2A460599684801F0FCFB0A
:101728000A2000F01FFAADF818009FED610A2A465A
:101738000699634801F0F0FB0D2000F013FA034608
:101748000C20ADF81C3000F00DFA03460B20ADF864
:10175800203000F007FA034600955A48ADF82430C7
:10176800099BDDE9071201F031FCB7EEC88A0022B7
:10177800002326769FED46BB9FED47AB9FED489B28
:1017880028EE0B0BC4E90E2384ED088B20EE0A0B20
:1017980084ED04BB84ED02BB89EE000B0DF07CFBED
:1017A80094ED087B84ED0A0B84ED04BB27EE0B7BDC
:1017B80027EE0A0B89EE000B0DF06EFB4248B0EEE7
:1017C800407BB0EE480B84ED0C7BFEF7D5FE4FF066
:1017D8007F530FA93C480F93ADF840508DF8425005
:1017E800FFF756FAB0EE480B3848FEF7DFFD02A9BE
:1017F80036488DF80850FFF7D3FE152000F0B2F9EF
:10180800034611A8ADF828300A9901F073FC324656
:10181800042311A92E4801F07BFC2D4801F05CFE41
:101828001C2000F09FF903469FED210AADF82C30EB
:101838000B99284801F016FC1B2000F093F9034689
:101848009FED1B0AADF830300C99234801F00AFCD3
:101858001A2000F087F903469FED150AADF83430D9
:101868000D991E4801F0FEFB192000F07BF9034694
:101878009FED0F0AADF8383019480E9901F0F2FBC8
:101888001849094800F084F9FEE700BFAFF300806B
:101898000000000000004940FCA9F1D24D62503F11
:1018A800854550D950FDEFBF60040024F0040024A2
:1018B80000007A445002002424020024EC0600248C
:1018C800400500249C0400247002002460050024C4
:1018D800780400244002002414020024DC060024BA
:1018E80030050024410E00082DE9F84F82480026F3
:1018F800824F4FF0380882494FF0200B3A46814C0E
:10190800814DDFF854A2DFF854922DED088B9FED3E
:10191800728B9FED739B0660466106620DF0A6F917
:101928007A487B4B3A467B490676036080ED028B0A
:1019380080ED048B80ED089B0DF098F94FF07E52F6
:10194800754B3146626004F11800744A23612260C5
:1019580040F2011222810122A27242460FF0C4FA1B
:101968005A46314604F150000FF0BEFA424631465D
:1019780004F170000FF0B8FA674B42463146C4F8DC
:10198800C83004F1D0009FED58AB9FED59BB84EDF2
:101998002E8B84ED309B84ED2AAB84ED2CBB0FF0AD
:1019A800A3FA5A46314604F584700FF09DFA424670
:1019B800314604F594700FF097FA554B3A4684F87F
:1019C800C861C4F8B0312046554B5649C4F878313F
:1019D80084ED58AB84ED5A8B84ED5C9B84ED6A9B57
:1019E80084ED6E8B84ED708B84ED749B0DF03EF965
:1019F800494C4D4B4246314605F110002B602E7183
:101A0800AC600FF071FA5A46314605F148000FF004
:101A18006BFA4246314605F168000FF065FA424616
:101A2800314605F1C800C5F8C04085ED28AB85ED05
:101A38002ABB85ED2C8B85ED2E9B0FF055FA5A4667
:101A4800314605F580700FF04FFA4246314605F5EC
:101A580090700FF049FA3A462846344985ED56AB5E
:101A680085ED58BB85ED5A8B85ED5C9B0DF0FEF836
:101A78003A4651462E480DF0F9F83A4651462D4857
:101A88000DF0F4F83A4651462B480DF0EFF83A4677
:101A980051462A480DF0EAF83A46494628480DF0DA
:101AA800E5F83A46494627480DF0E0F83A464946EF
:101AB80025480DF0DBF83A46494624480DF0D6F89B
:101AC8003A4623492348BDEC088BBDE8F84F0DF092
:101AD800CDB800BFAFF30080000000000000000098
:101AE800000000008088E5400000000000408F40B2
:101AF80039B4C876BE9FE63F600400240000002485
:101B0800410300087002002460050024F00400244A
:101B18003C10010845030008A410010868100108DA
:101B280054100108A50300087C100108AD03000843
:101B38004002002414020024DC060024300500249E
:101B48005002002424020024EC060024400500244E
:101B58003D0300089C0400243503000839030008ED
:101B6800704700BF1F2882B009D8084B03EB40021A
:101B780013F81030507843EA002002B07047012370
:101B88000C2043EA002002B0704700BFA8100108EB
:101B9800143001F0A3B900BF143001F09BB900BFA5
:101BA80038B500F1140504462DED028B284601F0E6
:101BB80083F9284601F08EF92846B0EE408A01F0F4
:101BC80077F9D0ED007AF8EE677A88EE277ABDECDF
:101BD800028B84ED0E7A38BDF0B5032399B0002747
:101BE8000125129306462C4B09A81595CDE90E73CD
:101BF80040F20453ADF84030284BCDE91357099310
:101C080001F088FD09A801F061FE002835D1244BB8
:101C180004AF04460090CDF84230102339460495AD
:101C28008DF820301F4BCDE91650CDE90650684697
:101C3800059301F0D9FF0823009A01A909A8ADF876
:101C480004508DF8064009940295039300F0E4F8D7
:101C580000230EA938463024049302F08DFD032298
:101C68004FF07E5309A906F114000B93CDE9094200
:101C7800049A01F0EBF819B0F0BD40F60132084BB8
:101C8800169704AFADF824200998CDF8423017957F
:101C980000F082F8DCE700BF04020404030300013B
:101CA800040604030704010B2DE9F04304462DED57
:101CB800028B83B0002948D0012140F20112002391
:101CC8000091ADF804208DF80630304A0126304BDB
:101CD800271D304904F12908626040F20272A360AE
:101CE80040F60663E16004F125092682A4F8252060
:101CF80084F82760A4F8293084F82B6003F0C0F832
:101D08006946054648B304F130008DF8066003F0D3
:101D18001FF8072D34D104F114052046FFF75CFFA6
:101D2800284601F0D7F82846B0EE408A01F0C0F8FE
:101D3800D0ED007AF8EE677A88EE277A84ED0E7A8D
:101D480003B0BDEC028BBDE8F08340F201130091B3
:101D58008DF80610ADF80430B7E704F1300002F052
:101D6800F7FF3946204602F087F9484601F0D2FCD1
:101D7800404601F0CFFC04F1120000F077F9CAE701
:101D88003946204602F078F9C5E700BF050805097D
:101D980005070506050A060610B584B003460124A2
:101DA800ADF8040003A8ADF80C30ADF80E4001F012
:101DB800B1FC214603A801F097FD204602F0FCFE85
:101DC800002103A801F090FD204602F0F5FE21460F
:101DD80003A801F089FD04B010BD00BF10B5C2F31F
:101DE800002384B00C46017C8DF80D2043EA4402A0
:101DF800FA2402238DF80C2003AA009401F08AFF2C
:101E080018B10124204604B010BD04460A2002F08F
:101E1800D3FE204604B010BD034670B543F8042B2A
:101E2800044684B007C983E80700A37983B91A2157
:101E38000B461E22FA2523742046ADF80C200223F7
:101E480003AA009501F066FF28B1012004B070BD17
:101E58001B210B46EDE70A2002F0AEFE4FF4B85204
:101E680000950223ADF80C20204603AA217C01F03E
:101E780051FF0028E9D10A2002F09EFE41F20272C9
:101E880000950223ADF80C20204603AA217C01F01E
:101E980041FF0028D9D10A2002F08EFE04220095C5
:101EA8000223ADF80C20204603AA217C01F032FF62
:101EB8000028CAD10A2002F07FFE062200950223DC
:101EC800ADF80C20204603AA217C01F023FF00284E
:101ED800BBD10A2002F070FE41F2082200950223CD
:101EE800ADF80C20204603AA217C01F013FF00283E
:101EF800ABD10A20064602F05FFE0095022303AA32
:101F0800217C2046ADF80C6001F004FF00289CD12C
:101F1800304602F051FE009522790C232046002A13
:101F28008DF80C3003AA4FF0020314BF622142213E
:101F38008DF80D10217C01F0EDFE002885D130468A
:101F480002F03AFE2279D4E902310B43DBB20AB936
:101F580043F0400362790AB143F020030E22FA25C8
:101F68008DF80D302046009502238DF80C2003AA29
:101F7800217C01F0CFFE00287FF467AF0A2002F031
:101F88001BFE102200950223ADF80C20204603AA60
:101F9800217C01F0BFFE00287FF457AF0A2002F031
:101FA8000BFE122100950223ADF80C1003AA217C28
:101FB800204601F0AFFE00287FF447AF0A2002F068
:101FC800FBFD012209212046FFF708FF003818BF52
:101FD80001203BE7F0B5102387B0234C01220025F0
:101FE8000126002702A920460195CDE902234FF4D6
:101FF8008052CDE9046709F0D5FC642003F0EEF9BE
:1020080002A94FF480522046CDE904670226102722
:10201800CDE9026709F0C6FC0322102302A9204675
:10202800CDE9022300230422CDE904234FF4805292
:1020380009F0B8FC40F23223042202A901931023CC
:102048002046CDE90223019A012305924FF48052DC
:10205800049309F0A7FC40F60601204609F0C2FCEB
:10206800284607B0F0BD00BF100700241C4B002213
:102078001C494FF0400C30B5054689B00220596024
:1020880007219A601A620124DA620A224FF4006E6C
:10209800DC6006922022CDE9000104200821CDE968
:1020A800020103201021CDE9040108206946C3E993
:1020B80004024FF4C072181DC3E906C24FF48052DF
:1020C800C3E909E209F044FC38B92846FFF782FF62
:1020D800003818BF012009B030BD204609B030BD16
:1020E8000C07002440410052614A0021D0B5136812
:1020F8008EB00A91002B40F0B9805E4B01214FF65B
:1021080083700C2411600221D3F8D4200026032701
:1021180042F48052C3F8D420D3F8D42002F4805279
:102128000092009AD3F8E02042F01002C3F8E020B1
:10213800D3F8E02002F010020192019AD3F8E020CF
:1021480042F04002C3F8E020D3F8E02002F0400259
:102158000292029AD3F8E02042F00802C3F8E02085
:10216800D3F8E02002F008020392039AD3F8E020A3
:1021780042F48072C3F8E020D3F8E02002F48072C1
:102188000492049AD3F8E02042F08002C3F8E020D9
:10219800D3F8E02002F080020592059AD3F8E020F7
:1021A80042F02002C3F8E020D3F8E02002F0200239
:1021B8000692069AD3F8E02042F00402C3F8E02021
:1021C800D3F8E0300C9403F0040307930323079A31
:1021D8000B93CDE9080108A9274804F085FF48F2C8
:1021E8003712022308A925480C94CDE90823CDE924
:1021F8000A6704F079FF4CF20372022308A9204809
:102208000C94CDE90823CDE90A6704F06DFF40F28C
:10221800FF62022308A91B480C94CDE90823CDE9E5
:102228000A6704F061FF4FF60C72022308A91648EA
:102238000C94CDE90823CDE90A6704F055FF4FF661
:102248003F02022308A911480C94CDE90823CDE9DF
:102258000A6704F049FF2022022308A90A480C94BF
:10226800CDE90A67CDE9082304F03EFF0EB0D0BDE2
:1022780008070024004402580010025800180258A9
:10228800000C025800200258001C02580014025882
:102298002DE9F04FDFF8108406460D46144608F184
:1022A80014002DED028B89B000AF02F05DFBD8F869
:1022B800143073B3D8F81830D8F80490002B436959
:1022C8000BBF4FF0080A4FF0100A4FF0020B4FF007
:1022D800040BB9F1000F2AD0A200EA46012B02F143
:1022E800070222F00702ADEB020D6846ADEB020DC6
:1022F800694600F03F81022B00F0D680002B6FD09A
:102308002246C847D5462437BD46BDEC028BBDE8FA
:10231800F08FD8F81830002BF5D0D8F804904FF08B
:10232800080A4FF0020B4369B9F1000FD4D1FB61E1
:10233800D8F80030BB61002BE5D0D54802F086FB09
:102348006B46BBF1020F786108EE103AFB6900F0AA
:1023580083816A465146A2EBC40295466200EA466A
:10236800B2FBFBF2AAEBC40085460AEB8200EE46FC
:10237800F861ADEB010DF8690EEB820CC7F810C0DF
:10238800EC46ADEB010D00EB8201CCF80400CCF873
:10239800081001EB82013869E946CCF80C1000EB13
:1023A8008201CCF800A001EB8202C9E900E0C9E98A
:1023B8000212012B00F06483022B00F06C82002BC8
:1023C80000F08081620849466046BB69984718EE6C
:1023D800103A24379D46BD46BDEC028BBDE8F08F10
:1023E800002C8DD01A46D8ED0B6A9FEDB27A844640
:1023F800331D36F922E00CF1080C07EE90EA33F9A8
:1024080022E00232F8EEE77A944267EE877A67EEC6
:10241800A67A4CED027A07EE90EAF8EEE77A67EED4
:10242800877A67EEA67A4CED017AE2D8F9612246FE
:10243800C847984ED8ED046A0020F9692B1D9FED16
:102448009E7A9FED9E6ADFED9E5A22E0F4EEC67AF0
:10245800F1EE10FAC0F2C88447F6FE72D1ED017AA7
:1024680045F8202066EEA77AF4EEC77AF1EE10FA66
:1024780040F2F080F4EEC67AF1EE10FAC0F2D5849C
:1024880047F6FE7243F820200230083184427FF676
:1024980039AFD1ED007A66EEA77AF4EEC77AF1EE9D
:1024A80010FAD3D83246D9E7002C3FF429AFD8ED3B
:1024B8000B6A84469FED787A0022331D8E4656F8C3
:1024C80022100CF1080C07EE901A53F82210023271
:1024D800F8EEE77A944267EE877A67EEA67A4CEDD3
:1024E800027A07EE901AF8EEE77A67EE877A67EED7
:1024F800A67A4CED017AE2D871462246C7F81CE06C
:10250800C847664ED8ED046A0020F9692B1D9FED77
:102518006A7A9FED6A6ADFF894C120E0F4EEC67A21
:10252800F1EE10FAC0F279843246D1ED017A45F81D
:10253800202066EEA77AF4EEC77AF1EE10FA40F2A0
:102548008780F4EEC67AF1EE10FAC0F25E84324665
:1025580043F820200230083184427FF6D3AED1ED13
:10256800007A66EEA77AF4EEC77AF1EE10FAD5D8BB
:102578006246DAE7002C3FF4C3AED8ED0B6A864614
:102588009FED477A4FF0000C331D56F82C200EF1C2
:10259800080E82F40002A2F5000207EE902A53F812
:1025A8002C200CF1020CF8EEE77A82F40002644564
:1025B800A2F5000267EE877A67EEA67A4EED027AF8
:1025C80007EE902AF8EEE77A67EE877A67EEA67A42
:1025D8004EED017AD9D8F9612246C847314ED8ED77
:1025E800046A0020F9692B1D9FED337A9FED336A49
:1025F800DFF8BCC01FE0F4EEC67AF1EE10FAC0F2C4
:10260800FC833246D1ED017A45F8202066EEA77AA0
:10261800F4EEC77AF1EE10FA18D9F4EEC67AF1EEB4
:1026280010FAC0F2DA83324643F82020023008312B
:1026380084427FF667AED1ED007A66EEA77AF4EEB3
:10264800C77AF1EE10FAD6D86246DBE76246EBE7C6
:1026580062467DE7324615E7A100D6466208073193
:1026680021F00701ADEB010DEA46ADEB010D69461E
:10267800ADEB0E0D0AEB8200EC46ADEB0E0D01EB57
:102688008202F861E946CCE900A0C9E9001290E6A7
:102698005C0700240280FFFF000000300082FF7FFB
:1026A8000000003482FF7F0044070024007E008081
:1026B8007E0080FF0000003804FF7FBF04FF7F3FDB
:1026C80000FEFF46002C00F0C982BBF1020FD8F8CB
:1026D800202000F0FA827969C7F8049002EB810E95
:1026E8005FED0C5A8A00DCF808100EF104007A61DC
:1026F8001A46DCF80C303B61331DD7F810903D6169
:10270800FD69C7E902CB8C46834636F92210D8ED1D
:102718000B7A06EE101A33F9221006EE901A3EF9DB
:102728002210B8EEC66A07EE101AF8EEE66A3BF910
:102738002210B8EEC77A26EE256A66EEA56A27EE5D
:10274800257A26EE276A66EEA76A27EE277A07EE2D
:10275800901A51080232F8EEE77A0AEB81009442A7
:1027680080ED006A05EB810067EEA57AC0ED006A8E
:102778000CEB810009EB810180ED007A98ED0B7A72
:1027880067EE877AC1ED007ABFD8D7F804903D6923
:10279800D7E902CB60466208BB6949469847D8F832
:1027A80028307A69D8ED046A1A441FED3D7A1FED86
:1027B8003D6A2B1D904602F1040A5FED3F5A002244
:1027C800A84ED9E900EC51E0F4EEC67AF1EE10FA21
:1027D800C0F2C78247F6FE7045F822000CEB0100F4
:1027E800D0ED007A66EEA77AF4EEC77AF1EE10FA29
:1027F8004BD9F4EEC67AF1EE10FAC0F2BA8247F677
:10280800FE70BBF1020F43F822002BD0D9F8080064
:102818000844D0ED007A66EEA77AF4EEC77AF1EEB6
:1028280010FA36D9F4EEC67AF1EE10FAC0F2CD827B
:1028380047F6FE7048F82200D9F80C000144D1EDA3
:10284800007A66EEA77AF4EEC77AF1EE10FA1ED98E
:10285800F4EEC67AF1EE10FAC0F2AF8247F6FE71D6
:102868004AF82210023294427FF6B1AD51080EEBBD
:1028780081008900D0ED007A66EEA77AF4EEC77A77
:10288800F1EE10FAA0D83046A6E73046B9E731464F
:10289800E6E73046CEE7002C00F0E081BBF1020FFE
:1028A800D8F8203000F0E1817A69DCF8081003EBF1
:1028B800820EC7F804909300DFED6B5A0EF1040006
:1028C80000227B61DCF80C303B61331DD7F8109097
:1028D8003D61FD69C7E902CB8C46834656F8221054
:1028E800D8ED0B7A07EE101A53F82210B8EEC76A23
:1028F80007EE101A5EF82210F8EEC76A07EE101AF3
:1029080026EE256A5BF82210B8EEC77A66EEA56A4D
:1029180026EE276A27EE257A66EEA76A27EE277A3B
:1029280007EE901A51080232F8EEE77A0AEB8100B6
:10293800944280ED006A05EB810067EEA57AC0ED50
:10294800006A0CEB810009EB810180ED007A98EDBB
:102958000B7A67EE877AC1ED007ABFD8D7F8049072
:102968003D69D7E902CB60466208BB69494698478A
:10297800D8F828307A69D8ED046A1A449FED3E7A6F
:102988009FED3E6A131D9246DFF8E4C00022FB610A
:102998002B1D364ED9E9008E4EE0F4EEC67AF1EEE4
:1029A80010FAC0F2FC81304645F822000EEB010017
:1029B800D0ED007A66EEA77AF4EEC77AF1EE10FA57
:1029C80049D9F4EEC67AF1EE10FAC0F2EF8130463A
:1029D800BBF1020F43F822002AD0D9F808000844B6
:1029E800D0ED007A66EEA77AF4EEC77AF1EE10FA27
:1029F80035D9F4EEC67AF1EE10FAC0F2C981304644
:102A08004AF82200D9F80C000144D1ED007A66EEAC
:102A1800A77AF4EEC77AF1EE10FA1ED9F4EEC67A68
:102A2800F1EE10FAC0F2AD813146F86940F8221093
:102A3800023294427FF6CBAC510808EB8100890042
:102A4800D0ED007A66EEA77AF4EEC77AF1EE10FAC6
:102A5800A3D86046A8E76046BAE76146E5E760465E
:102A6800CEE700BF0280FFFF000000300082FF7F3A
:102A7800007E00800000003404FF7FBF04FF7F3F1A
:102A8800002C00F0EB807A690021D8F82030C7F8D4
:102A9800109003EB820ED7F81C909300FD610EF1A5
:102AA80004021FED0C6A7B61331D154656F8212080
:102AB8004808D8ED0B6ABBF1020F82F40002A2F5B8
:102AC800000207EE902A53F8212082F40002B8EEA3
:102AD800E77AA2F5000227EE067A07EE902A0AEBBB
:102AE8008002F8EEE77A27EE267A67EE867A82ED9C
:102AF800007A09EB80024FEA800067EEA67AC2ED01
:102B0800007A27D05EF8212082F40002A2F50002A4
:102B180007EE902A55F8212082F40002B8EEE77AF1
:102B2800A2F5000227EE067A07EE902ADCF80820C4
:102B3800F8EEE77A024427EE267A67EE867A82ED87
:102B4800007A98ED0B7ADCF80C2067EE877A02445D
:102B5800C2ED007A02318C42A8D8D7F810906046AE
:102B68006208BB694946FD699847D8F828307A69F0
:102B7800D8ED046A1A441FED407A1FED406A131D10
:102B88009246DFF8C4C20022FB612B1DAB4ED9E987
:102B9800008E4EE0F4EEC67AF1EE10FAC0F2C5806F
:102BA800304645F822000EEB0100D0ED007A66EEC3
:102BB800A77AF4EEC77AF1EE10FA49D9F4EEC67A9C
:102BC800F1EE10FAC0F2BF803046BBF1020F43F8B5
:102BD80022002AD0D9F808000844D0ED007A66EE21
:102BE800A77AF4EEC77AF1EE10FA35D9F4EEC67A80
:102BF800F1EE10FAC0F2AE8030464AF82200D9F859
:102C08000C000144D1ED007A66EEA77AF4EEC77A9B
:102C1800F1EE10FA1ED9F4EEC67AF1EE10FAC0F20F
:102C28008B803146F86940F82210023294427FF6D0
:102C3800CEAB510808EB81008900D0ED007A66EE32
:102C4800A77AF4EEC77AF1EE10FAA3D86046A8E79F
:102C58006046BAE76146E5E76046CEE72246494660
:102C68006046BB699847FFF7B2BBC7F810B00022AF
:102C780098ED0B6A331DDFED726AD7F81CB07869DE
:102C880056F8221007EE901A53F82210B8EEE77A99
:102C980007EE901A51080232F8EEE77A27EE267A04
:102CA8000AEB810E94420BEB810167EEA67A27EEC0
:102CB800067A67EE867A8EED007AC1ED007ADFD863
:102CC8008300D7F810B07B614DE61A46C7F810B0FC
:102CD80098ED0B6A331DDFED5B6AD7F81CB0786995
:102CE80036F9221007EE101A33F9221007EE901A5F
:102CF800B8EEC77A51080232F8EEE77A27EE267A5C
:102D08000AEB810E94420BEB810167EEA67A27EE5F
:102D1800067A67EE867A8EED007AC1ED007ADFD802
:102D28008300D7F810B07B6134E5F0EE675AFEEE09
:102D3800E45A15EE900A34E7F0EE675AFEEEE45ACC
:102D480015EE901A6EE7F0EE675AFEEEE45A15EEAD
:102D5800900A3AE7F0EE675AFEEEE45A15EE900A4A
:102D68004BE767EEA57AFDEEE77A17EE900A00B218
:102D780032E567EEA57AFDEEE77A17EE900A00B223
:102D88003FE5F0EE675AFEEEE05A15EE901A4CE673
:102D9800F0EE675AFEEEE05A15EE900A30E6F0EED5
:102DA800675AFEEEE05A15EE900AFDE5F0EE675A16
:102DB800FEEEE05A15EE900A0AE667EEA57AFDEEF9
:102DC800E77A17EE901A09B24AE567EEA57AFDEEA2
:102DD800E77A17EE900A00B22CE5F0EE675AFEEE9D
:102DE800E45A15EE902A1FE467EEA57AFDEEE77A1D
:102DF80017EE902A12B2FFF731BBF0EE675AFEEEDB
:102E0800E45A15EE902AFFF7FDBBF0EE675AFEEE86
:102E1800E05A15EE902AFFF79BBBF0EE675AFEEEDC
:102E2800E05A15EE902AFFF780BB67EEA57AFDEE13
:102E3800E77A17EE902A12B2FFF724BB82FF7F00D1
:102E480000000030000000387E0080FF30B5154CCF
:102E5800154685B0046004F1080C01AB07C98CE87D
:102E68000700D4ED047AF5EEC07A83E80700F1EEA6
:102E780010FA14DDF7EE006A86EEA77A84ED0B7A75
:102E88006DB1204640F8145F01F06EFD06490369F4
:102E98000020064AE1616262E36005B030BD0120AE
:102EA80005B030BD44070024002000300000003089
:102EB80000680830704700BFB1F5807F03680A4694
:102EC80028BF4FF48072B1F5807F9A6094BF0020CC
:102ED800012070470068143001F0A6BD30B50468C1
:102EE80083B008480D46A368626AE1699B000090B8
:102EF80004F1140001F03AFD0020C4E9000503B014
:102F080030BD00BF99220008024B0022C3E9052208
:102F1800704700BF4407002430B52DED028B83B005
:102F2800044601231546ADF804101730BDF8041007
:102F3800B0EE408A0180637600F0ECFBB5FA85F3C9
:102F4800002200215B092575A16084ED048AA5751E
:102F58006375C4E9002203B0BDEC028B30BD00BF2D
:102F680020EE007ADFED067A27EE000A60EE277A77
:102F780080ED020AFCEEE77AC0ED017A704700BFE7
:102F880000FF7F4790ED046AB7EE007ADFED0E5A36
:102F98000346D0ED036AC5EE867A77EEA67AF4EE9C
:102FA800C77AF1EE10FAC8BF77EEC77A90ED027AC9
:102FB800B4EEE77AC0ED037A1730F1EE10FACCBF21
:102FC800597D997D00F090BC0000F04230B585B085
:102FD80004469FED110A9DF82050ADF80C10039996
:102FE800ADF808202A46ADF804308DED000AFFF749
:102FF80093FF9DED000A2A46029904F11C00FFF791
:103008008BFF9DED000A2A46019904F1380005B0AE
:10301800BDE83040FFF780BF00007A4438B50C4661
:10302800054691ED000AFFF79BFF94ED010A05F1B3
:103038001C00FFF795FF94ED020A05F13800BDE882
:103048003840FFF78DBF00BF10B50446FFF79AFF61
:1030580004F11C00FFF796FF04F13800BDE81040AA
:10306800FFF790BF70B5044682B0C1F30726CDB212
:10307800ADF8041001F09EFD4FF480724FF001236B
:103088002060A01DA571A280E671A36002B0BDE812
:10309800704000F03FBB00BF38B5044601F08AFD20
:1030A800002223682271834210D00122A57AE37A94
:1030B800954020602271A01D6DB243B900F006FC56
:1030C80040B22843C0B27F28A0720AD038BD00F0B1
:1030D800FDFBB0FA80F040092843C0B27F28A072F7
:1030E800F4D101F067FD07EE900AF8EE677AC4EDB7
:1030F800037A38BD82B04FF0000C0323ADF80410FA
:10310800BDF8042080F810C00280438002B07047E8
:103118002DE9F04FBE4E00258FB0BE4C037006F16E
:1031280040034260074601928846202229463046DD
:10313800C4F85831C4F85461CDE90355CDE90555B3
:10314800CDE90755CDE90955CDE90B550DF0CCFE74
:103158002022294604F59970C4F82151C4F8255154
:10316800C4F82951C4F82D510DF0BEFE019B84F816
:10317800385284F820317A68002A5FD02B464146BD
:10318800B64604F5907599464FF0010A03EB031013
:10319800D1F800B0D1F804800133D1F808C0221862
:1031A800CE6844F800B0C2F80480C2F808C0D660FF
:1031B800087C2EF8029B10740A7C05F8012F002A5F
:1031C80069D07A68113184F838A29A42DED84FF46F
:1031D800802291489DF8043008214FF000084FF0F4
:1031E8000009C4F874310023C4E957020122C4F865
:1031F800643184F87031C4E95A2194F83812C4E96A
:10320800608981B3C4F88821002284F8713184F878
:1032180078313B78C4E96322A3B30122002001215D
:10322800013B84F89421C4E96801082B2CD8DFE815
:1032380003F0ABB0B5BABFC4C9CFD6009DF804300F
:103248000121C4F86421C4F874314FF4802384F850
:103258007021714AC4E9572308230022C4E95A138C
:103268000023C4E960230123002284F8713100237C
:1032780084F878310323C4F888313B78C4E96322A1
:10328800002BCAD184F89431644802F0DFFC03466D
:1032980038B1FFBEFEE77A6811319A423FF676AF41
:1032A80095E703A95D48039302F02EFE0546002822
:1032B80068D1022240F2FF73CDE9082300230422DB
:1032C800CDE90A2394F82031002B00F0D5804FF087
:1032D800060921E0022B00F08980012B40F0C48010
:1032E8009AF80130012B00F0C180002B4C4B18BF1D
:1032F800002306A94948CDE9063902F0D3F8002889
:1033080040F0BF80013594F82031EDB2AB4240F275
:10331800B380444B53F825902FB207EB071704EB03
:10332800070A504600F0F6F905EB051323441B7C09
:10333800042B7DDC022B00F3918000F08D80631953
:10334800002283F81021E35D002BC3D19AF80130E5
:10335800062B00F08580072B00F08A80022B00F0F6
:103368009680032B00F09580002B00F09680012BAF
:1033780000F09180042B00F09280052B2A4B18BF97
:103388000023B6E7FFBEFEE703224023C4E9662315
:103398007AE707226023C4E9662375E70F228023B2
:1033A800C4E9662370E71F22A023C4E966236BE7FC
:1033B8003F22C023C4E9662366E77F22E023C4E9ED
:1033C800662361E7FF224FF48073C4E966235BE755
:1033D80040F2FF124FF49073C4E9662354E740F2B9
:1033E800FF324FF4A073C4E966234DE79AF8013021
:1033F800042B37D0052B3DD0002B40D0012B42D0D9
:10340800022B42D0032B094B18BF002371E700BFE2
:10341800004000307807002400200240D40800242F
:103428000002B025E81001080000B84F00209036CF
:1034380003233E1D04EB05084FF0000B264488F8D3
:10344800103130460BF1010B00F064F998F8103197
:1034580004365B45F5DC76E70123EAE70223E8E773
:10346800104B46E7104B44E7002342E70F4B40E779
:103478000F4B3EE70F4B3CE70FB0BDE8F08F0E4B0C
:1034880037E7FFBEFEE70D4B33E70D4B31E70D4B3A
:103498002FE70D4B2DE70D4B2BE70D4B29E70D4B78
:1034A80027E700BF0800900C1000C0102000F0149F
:1034B8008000501D000180210004002A0008302EE1
:1034C800001060320040C03A0080F03E00005247D1
:1034D800000021430000844B38B5094C40F2FF72CC
:1034E8004FF0011104F5AE75284602F0BBFC94F8C4
:1034F8002021D4F854112846BDE8384002F026BAF5
:1035080078070024064B0F29D3F8543198BF03EBF2
:1035180041031B8800EE103ABBEEC80A704700BF93
:1035280078070024214B02689A4200D07047204A4D
:1035380000232048D2F8D81030B51F4C41F02001A4
:1035480083B0C4F8C001092004F5E075C4E971032B
:103558004FF48060C2F8D810D2F8D8204FF4006138
:10356800C4E9733094F8380202F02002C4F8D41188
:103578004FF40051984201922846C4F8D811C4E982
:103588007833019B14BF00234FF48073C4F8DC31F7
:1035980002F0E0FE08B1FFBEFEE704F5AE73C4F822
:1035A800A851C4F8F83103B030BD00BF0020024074
:1035B800004402584000024078070024014803F004
:1035C80041BA00BF3809002402682DE9F84F4B4B77
:1035D8009A4201D0BDE8F88F494D95F83832002B52
:1035E800F8D095F82031002B77D0002405F10C098C
:1035F80005F5997605F59077A04613E003F00101EB
:1036080017F811BCA9F1080000F06EF9BBF1010F21
:1036180025D895F82031013409F111090236A2B2F2
:1036280093422BD917F8012F002AF4D0D5F854313A
:103638000021327833F81400D5F8583103EB04131D
:1036480023F81200338801339BB233805FFA83FA80
:103658003A789A42D2D88A46A6F80080D0E7CAF3C8
:103668004001A9F1040000F03FF9BBF1020FCAF3D1
:103678008001CED0484600F037F9CAE7002395F814
:103688003802204909229842C5F8C8314FF48060B1
:10369800C5F8C011C5F8C4214FF400614FF40052B9
:1036A800C5F8CC3108BF4FF48073C5F8D821C5E9F7
:1036B800740100221448C5E97732C5F8E42102F004
:1036C80049FE08B1FFBEFEE795F82021D5F8541150
:1036D8000E48BDE8F84F02F039B90A4909224FF4FB
:1036E8008060C5F8C831C5E970124FF400614FF425
:1036F8000052C5E97330C5E97512DAE700200240C7
:10370800780700244000024038090024D408002427
:10371800704700BF8378022B30B504468FB037D08E
:10372800032B33D0012B31D000230A93E378012BEC
:103738002AD0022B28D000230B93002320460C9379
:1037480001F02AFD0546204601F02EFD2378099058
:10375800082B13D8DFE803F01F3245586B7E91A47D
:103768000500594BD3F8E02042F48072C3F8E020FA
:10377800D3F8E03003F480730893089B09A928461E
:1037880003F0B2FC0FB030BD0B93D6E70A93CDE738
:1037980011230A93CAE74C4B09A92846D3F8E0201D
:1037A80042F00102C3F8E020D3F8E03003F001034F
:1037B8000093009B03F098FC0FB030BD424B09A961
:1037C8002846D3F8E02042F00202C3F8E020D3F8FC
:1037D800E03003F002030193019B03F085FC0FB076
:1037E80030BD394B09A92846D3F8E02042F004023D
:1037F800C3F8E020D3F8E03003F004030293029BFF
:1038080003F072FC0FB030BD2F4B09A92846D3F83E
:10381800E02042F00802C3F8E020D3F8E03003F0DB
:1038280008030393039B03F05FFC0FB030BD264BE6
:1038380009A92846D3F8E02042F01002C3F8E02096
:10384800D3F8E03003F010030493049B03F04CFC1E
:103858000FB030BD1C4B09A92846D3F8E02042F030
:103868002002C3F8E020D3F8E03003F020030593EA
:10387800059B03F039FC0FB030BD134B09A928464E
:10388800D3F8E02042F04002C3F8E020D3F8E0305B
:1038980003F040030693069B03F026FC0FB030BDEF
:1038A800094B09A92846D3F8E02042F08002C3F862
:1038B800E020D3F8E03003F080030793079B03F080
:1038C80013FC0FB030BD00BF0044025838B50546A0
:1038D80001F062FC0446284601F066FC01462046D9
:1038E800BDE8384003F008BE70B506460D4601F045
:1038F80053FC0446304601F057FC2A1E0146204678
:1039080018BF0122BDE8704003F0FCBD002312225D
:1039180070B586B0CDE9022304930368032B01D860
:1039280004230593061D841D304601F035FC054629
:10393800304601F039FC034601A92846019303F0FB
:10394800D3FB204601F028FC034620461C4601F024
:103958002BFC01A903462046019303F0C5FB06B0E2
:1039680070BD00BF634A0368934210B58CB028D07D
:10397800614A934258D0614A934200F09480604A69
:10398800934201D00CB010BD5E4C5F48D4F8E030D3
:1039980043F00203C4F8E030D4F8E03003F0020347
:1039A8000A930A9BFFF7B2FFD4F8F43043F0800380
:1039B800C4F8F430D4F8F43003F080030B930B9B75
:1039C800E0E7504C5148D4F8E03043F00203C4F823
:1039D800E030D4F8E03003F002030193019BFFF7D5
:1039E80095FFD4F8E83000221F2043F40013114655
:1039F800C4F8E830D4F8E83003F400130293029BCB
:103A0800D4F8D83043F00103C4F8D830D4F8D8300B
:103A180003F001030393039B02F0EAFA1F200CB0A2
:103A2800BDE8104002F022BB364C3948D4F8E030EB
:103A380043F08003C4F8E030D4F8E03003F08003AA
:103A48000493049BD4F8E03043F00203C4F8E03058
:103A5800D4F8E03003F002030593059BFFF756FF07
:103A6800D4F8E8300022212043F480031146C4F83A
:103A7800E830D4F8E83003F480030693069BD4F8C2
:103A8800D83043F00103C4F8D830D4F8D83003F064
:103A980001030793079B02F0ABFA21200CB0BDE8A5
:103AA800104002F0E3BA1B48FFF730FF154B002225
:103AB8004820D3F8E840114644F40004C3F8E8402D
:103AC800D3F8E84004F400040894089CD3F8D840DC
:103AD80044F00104C3F8D840D3F8D83003F0010308
:103AE8000993099B02F084FA48200CB0BDE8104005
:103AF80002F0BCBA0054004000580040005C00408E
:103B0800001C005800440258400C0024B809002446
:103B1800900A0024680B00242DE9F0431A4B87B063
:103B280000254FF010099E46EC46184BFF22E04650
:103B380067461A700EF118060EF13004CDE90055EB
:103B4800CDE90255ADF80090BCE80F00CDE9045569
:103B5800AEE80F009CE803000095ADF800908EE8F1
:103B68000300B8E80F000FC69CE803000095ADF805
:103B7800009086E803000FCF0FC49CE8030084E898
:103B8800030007B0BDE8F08304000024B409002452
:103B980010B5EFF3108472B6084B1A78120602D5E6
:103BA80004B962B610BD1B78D82205485BB202FB87
:103BB8000300143002F046FFF2E700BFB409002406
:103BC800B8090024014804F035BB00BF440A0024AA
:103BD800014804F02FBB00BF1C0B0024014804F06F
:103BE80029BB00BFF40B00242DE9F0430F68D8244B
:103BF8003F4D85B007FB04F4032F05EB0403036076
:103C080040DCCB680E46012B3CD84DD04FF0D8088D
:103C1800B646DFF8FC9008FB0758BEE80F00C4461C
:103C2800ACE80F00DEF800300DF1100ECCF80030D3
:103C3800D8F808C099E80F000EE90F000EEB8703CB
:103C4800BCF1010F53F8103CC8F88C3031D0BCF1EE
:103C5800020F42D0BCF1000F35D0317C8C34D82310
:103C6800002201202C4403FB07534900C3E9260224
:103C7800C3F894102046C3E92822C3E92A2204F095
:103C8800CBF818B1012005B0BDE8F0830146204605
:103C980004F0DCFA0028F5D10146204604F000FBC8
:103CA800003818BF0120EEE70B7C103B672BADD91D
:103CB800E8E701F0E3F80F4B98420CBF0E4B0F4BAF
:103CC800C8F89030C9E701F0D9F80A4B98420CBF00
:103CD8000B4B0C4BC8F89030BFE701F0CFF8054B01
:103CE80098420CBF084B094BC8F89030B5E700BFA5
:103CF800B8090024000E27072D0FB0303211D0204C
:103D08005F4390608A62E030200BA0101A0980108F
:103D1800B40F01082DE9F041D0F8008082B00D46BB
:103D280017461E4608F18C04204604F08BFA20281A
:103D3800FAD1D8F80C3073B96D002046089C334688
:103D48003A46A9B2009404F0BDF8003818BF012023
:103D580002B0BDE8F081089B32463946204604F09F
:103D680085F9F2E7044B10221A7483F8E82083F8E7
:103D7800C02183F898227047B809002430B5002381
:103D880095B04FF48071062204460B930692139364
:103D9800CDE90C13CDE90E33CDE9113301F070F8FC
:103DA80007282BD004F1100541F2883206A92846CD
:103DB80005F088F828B10123184684F85C3015B05E
:103DC80030BD0222022306A92846CDE9002310228D
:103DD8000123CDE9022300224FF48003CDE9042317
:103DE80005224FF0807306926A460F9341F288339A
:103DF80005F0D4F90028DED115B030BD0323012029
:103E080084F85C3015B030BD70B50023A4B04FF015
:103E180080724FF480750446ADF806300D93CDE9F5
:103E280010320122CDE90E53CDE91223CDE9143326
:103E3800002943D0F02300F1100508AEADF8063094
:103E4800C02341F2883231462846089305F03AF8F3
:103E580028B10123184684F85C3024B070BD41F2C3
:103E680088320DF10601284605F096F80346002829
:103E7800EFD105224FF480711E93284616924FF019
:103E880080721B9321931F9202AA9FED1F7BCDE99D
:103E98001C13CDE922338DED027B9FED1D7B41F292
:103EA800883316A98DED047B9FED1B7B8DED067B7A
:103EB80005F074F90028CCD124B070BD00F11005CC
:103EC80008AE612341F2883231462846089304F04F
:103ED800F9FF0028BDD141F288320DF106012846CC
:103EE80005F0D8F80028B4D1BDF80630204623F0F4
:103EF800780343F04003ADF80630FFF73FFF002892
:103F08009ED0A6E7AFF3008000000000010000008B
:103F18001000000001000000000000000000400048
:103F28002DE9F04F00234FF4807501264FF080787B
:103F380004462DED028BABB08DF807301393219317
:103F4800299314950E96CDF85C80CDE91533CDE90B
:103F58001863CDE91A33CDE92253CDE92433CDE9ED
:103F6800273306231C9300F08BFF072808D004F1A1
:103F7800100741F288321CA9384604F0A3FF40B16B
:103F88000123184684F85C302BB0BDEC028BBDE8E9
:103F9800F08F4FF0020A4FF0020B4FF0050941F283
:103FA800883308AA1CA93846CDF89480CDF87090BB
:103FB8009FED2D8BCDE908AB4FF0000A4FF4800B35
:103FC8008DED0A8BCDE90CAB05F0E8F80028D7D1C8
:103FD80041F2883238460EA904F074FF0028CFD188
:103FE800402341F288320DF1070138468DF8073039
:103FF80004F0D2FF0028C3D141F288330EA902AAE7
:104008003846CDF83890CDF85C809FED197B8DED62
:10401800048BCDE906AB8DED027B05F0BFF80346B6
:104028000028ADD1CDF870904FF00109CDF89480FB
:104038004FF00008219308AA29931CA93846229515
:10404800CDE92333CDE9273341F288338DED0A8B4F
:10405800CDE90CABCDE9088905F0A0F8002893D08C
:10406800304684F85C608FE7100000000100000013
:1040780040000000400000002DE9F043624CA3B06E
:104088000D46046000F0FCFE072800F0A9802868AF
:1040980023466968AA6807C31E46AB8926F8043B0D
:1040A8003046257B677B04F0EFFEE0B9574B012DC6
:1040B8004FF00108E061236114BF4FF480134FF4FF
:1040C8000003C4E9058893FAA3F3B3FA83F34FF422
:1040D8008079013BC4F82490C4E90B003046236280
:1040E80004F066FE38B10122134684F85C201846B5
:1040F80023B0BDE8F08366230B90139041F2883219
:1041080006A90693CDE90C90CDE90E00CDE9110082
:10411800304604F0D7FE0028E5D1992341F28832D1
:1041280006A93046069304F0CDFE0028DBD105230E
:104138001C9019906A4614934FF08073219014A92B
:104148001D9341F288339FED2A7BCDE91A90CDE982
:104158001F008DED007B9FED287B30468DED027BA7
:104168009FED277B8DED047B05F018F80028BAD168
:1041780029462046FFF748FE0028B4D12046FFF71D
:10418800CFFE03460028AED1002FB0D11893304699
:104198000027002606AA14A9CDF86890CDE91F3398
:1041A800EB2314934FF440631B934FF4005317937E
:1041B8004FF440431C93A0231693062319934FF002
:1041C800805321934FF04073CDE906671D9305F0A6
:1041D8005DF8034600288AD0434684F85C8086E769
:1041E80001230322184684F85C2023B0BDE8F0833D
:1041F80000000000010000001000000001000000A5
:104208000000000000004000180D0024005000527B
:104218002DE9F04F8FB0414B0024026800AF9A425D
:104228007C63C7E90944C7E90B4403D03C37BD4662
:10423800BDE8F08F3A4B40F609213A48EB46D3F8EF
:10424800D42007F11C0607F1220A4FF0020942F4B4
:1042580080424FF00308C3F8D420D3F8D42002F4E6
:104268008042BA60BA68D3F8E02042F04002C3F84E
:10427800E020D3F8E02002F04002FA60FA68D3F8B0
:10428800E02042F02002C3F8E020D3F8E02002F05A
:1042980020023A613A69D3F8E02042F01002C3F8EC
:1042A800E020D3F8E02002F010027A617A69D3F8AE
:1042B800E02042F00202C3F8E020D3F8E030F861D1
:1042C80003F002033984BB61174B7B60BB697B68D1
:1042D80053F8040F7B6000F05FFF7B6805461868A1
:1042E80000F062FF16F8013B786207F124012846C6
:1042F800C7F830807B63C7E90A9402F0F5FE56459B
:10430800E5D100225C20114601F072FE5C2001F02C
:10431800ADFE3C37DD46BD46BDE8F08F005000528B
:10432800004402580A0A0909740D0024114B026856
:104338009A4200D07047104A70B5D2F8D4300F4C6A
:1043480023F4804304F11806C2F8D43054F8040F5B
:1043580000F022FF0546206800F026FF01462846A7
:1043680003F002F8B442F1D15C20BDE8704001F0DE
:104378008BBE00BF0050005200440258740D002448
:10438800014805F00FB800BF280D0024084B1A1D7E
:10439800981D03F1080110B49C1C9A6603F10A02E7
:1043A800C3E91834C3E91B015DF8044B5A67704729
:1043B800180D002438B5036871B9026A00F12805A0
:1043C80000F5AC74012A0CBF002140218BBB1D4BAA
:1043D8005722C0F858310DE0426A00F1C00500F5D7
:1043E800E874012A0CBF00214021EBB1164B5A2278
:1043F800C0F8D03100232046C4E901214FF480528F
:104408004FF48061636262614FF48042C4E9033112
:104418004FF48073C4E906234FF40033236201F09C
:1044280099FF58B1FFBEFEE7084B5822C0F8D031BB
:10443800E0E7074B5922C0F85831DBE7C5E92044CB
:10444800A56338BD100002407000024028000240F9
:10445800580002402DE9F043821D05468BB0031D2C
:1044680005F10A010830CDE9052305F10C02AB6915
:10447800CDE907010992002B3DD0EB69B3FA83F827
:104488004FEA58180123022205AE0AAF4FF0060979
:104498000393CDE9012356F8044B2B7922789342F4
:1044A80016D02B68F3B1012B02D1F2B10A23049381
:1044B800204600F079FE03462046009300F06CFE8B
:1044C800694602F011FEBE42E5D10BB0BDE8F083AB
:1044D800697963789942E4D1B8F1000FF3D02B6879
:1044E800002BE0D1CDF81090E2E76378022B14BFDF
:1044F8000A230823DBE74FF00108C3E7534A0368A0
:10450800934230B505468BB055D02032934252D0F5
:104518004F4A934204D02032934201D00BB030BDB1
:104528004C4C4D48D4F8E03043F00103C4F8E03077
:10453800D4F8E03003F001030593059BD4F8E0308C
:1045480043F00803C4F8E030D4F8E03003F008037F
:104558000693069BD4F8E03043F04003C4F8E030FB
:10456800D4F8E03003F040030793079BD4F8F03009
:1045780043F40003C4F8F030D4F8F03003F4000337
:104588000893089BFFF766FFD4F8D830296843F0F2
:1045980001032F4A3048C4F8D830891AD4F8D830E3
:1045A80018BF012103F001030993099B0BB0BDE873
:1045B8003040FFF7FFBE274C2848D4F8E03043F0DE
:1045C8000103C4F8E030D4F8E03003F001030093AD
:1045D800009BD4F8E03043F01003C4F8E030D4F87E
:1045E800E03003F010030193019BD4F8E03043F06E
:1045F8004003C4F8E030D4F8E03003F040030293FD
:10460800029BD4F8F03043F48003C4F8F030D4F8B7
:10461800F03003F480030393039BFFF71BFFD4F8E8
:10462800D830296843F00103084A0C48C4F8D83048
:10463800891AD4F8D83018BF012103F00103049374
:10464800049B0BB0BDE83040FFF7B4BE04580140EE
:10465800045C014000440258EC0F0024900D002433
:10466800014802F0EFB900BFE80E0024014802F04B
:10467800E9B900BF600F0024014802F0E3B900BFA8
:1046880044110024014802F0DDB900BFBC11002428
:104698001A4A0368934210B40BD02032934208D0D0
:1046A800174A934216D02032934213D05DF8044B38
:1046B8007047144B0022D3F85442C3F85822002CF8
:1046C800F4D0D3F84802D3E9931223465DF8044B9B
:1046D800520818470B4B0022D3F8B044C3F8B4244F
:1046E800002CE3D0D3F8AC24D3F8A814D3F8A4044E
:1046F800520823465DF8044B184700BF0458014090
:10470800045C0140900D0024184A0368934210B4D9
:104718000BD02032934208D0154A934217D020324A
:10472800934214D05DF8044B7047124BD3E994249C
:104738005208C3F85822002CF4D0D3E9920123463A
:1047480001EB820100EB82005DF8044B1847094B2E
:10475800D3F8AC24D3F8B0445208C3F8B424002CDE
:10476800E0D0D3F8A814D3F8A404E8E7045801402B
:10477800045C0140900D00242DE9F04F0C684FF4C3
:104788001776754F87B004FB06F6012C07EB060A6F
:10479800C0F800A000F3A0800D468E464FF0000838
:1047A800D44669A3D3E9002369A1D1E90001CDE981
:1047B800022306ABCAF8508203EB8403CDE9040157
:1047C80053F810BC53F8083CCAE992880193BEE834
:1047D8000F00ACE80F00BEE80F00ACE80F00019B2B
:1047E8009EE80300CAF828B0CAF8C0308CE8030075
:1047F8002B69042B0CD8DFE803F0737D8791030045
:104808004FF41773554A03FB04739A64C3F8E02006
:10481800AA692B6A002A43D0002B4FF4177308BFEC
:10482800022203FB047318BF0322DA6201221A630F
:10483800EA696B6A002A40D1191E4FF4177318BF32
:10484800012103FB0473C3E931126B69022B05D8FC
:10485800434A12F80380434A52F823904FF41773DF
:1048680006F128004246494603FB047400233844F5
:1048780063646363E365C4F8DC30C4F8CC30C4F81F
:10488800F430C4E90F33C4E91533C4E93533C4E956
:104898003B33022306F0FAFD002849D0FFBEFEE7AD
:1048A800191E4FF4177318BF012103FB0473C3E9E2
:1048B8000B12EA696B6A002ABED0002B4FF41773FB
:1048C80008BF022203FB047318BF0322C3F8C420E5
:1048D8000122C3F8C820B8E7012007B0BDE8F08F6F
:1048E8004FF417734FF4FA5203FB04739A64C3F836
:1048F800E0208DE74FF417734FF47A5203FB0473EB
:104908009A64C3F8E02083E74FF417734FF4FA4230
:1049180003FB04739A64C3F8E02079E74FF4177334
:104928004BF6803203FB04739A64C3F8E0206FE708
:1049380006F1C000022342464946384406F0A6FD67
:104948000028CAD0FFBEFEE704580140045C0140BD
:1049580024580140245C0140900D00240077010098
:10496800281101082C1101080068704770B5046807
:1049780082B015460E46C4F85032C4E99212069A1F
:10498800C4F85422A269012A26D0626A012A9AB27E
:1049980011D0294604F1C000019206F033FE236AC3
:1049A800019A012B10D0294604F1280006F02AFEAE
:1049B800002002B070BD04F1C000019206F0B4FE00
:1049C800236A019A012BEED1314604F1280006F042
:1049D800ABFE002002B070BD226A012A9AB211D043
:1049E800294604F12800019206F00CFE636A019A38
:1049F800012B10D0294604F1C00006F003FE002068
:104A080002B070BD04F12800019206F08DFE636AC1
:104A1800019A012BEED1314604F1C00006F084FE64
:104A2800002002B070BD00BF03681B69042B05D8C5
:104A3800044A02EB830393ED000A70479FED020AD4
:104A4800704700BF3811010800803B470368D3F85E
:104A580058027047704700BF08B500F0ADFCBDE8CC
:104A6800084001F08DBB00BF064808B503680BB1CC
:104A780002F04CFD044803681BB1BDE8084003F090
:104A88003BBC08BD5816002450120024064808B53F
:104A980003680BB102F03AFD044803681BB1BDE896
:104AA800084003F029BC08BD581600245012002401
:104AB800064808B503680BB102F028FD04480368EE
:104AC8001BB1BDE8084003F017BC08BD5816002408
:104AD80050120024364BDA6A520062D59A6A9A6AF2
:104AE8009A6A9B6A180600D500BE314B9B6A9906E4
:104AF80000D500BE2E4B9B6ADA0600D500BE2C4BB3
:104B08009B6A1B0700D500BE294B9B6A980700D5F6
:104B180000BE274B9B6AD90700D500BE244B9B6A71
:104B28001A0400D500BE224B9B6A9B0400D500BE28
:104B38001F4B9B6AD80400D500BE1D4B9B6A190504
:104B480000D500BE1A4B9B6A5A0500D500BE184B0B
:104B58009B6A9B0500D500BE154B9B6AD80500D5FE
:104B680000BE134B9B6A990100D500BE104B9B6A8F
:104B7800DA0100D500BE0E4B9B6A1B0300D500BEB0
:104B88000B4B9B6A580300D500BE094B9B6A9903DF
:104B980000D500BE064B9B6ADA0306D400BE00BEF1
:104BA800FEE7DB6A9B07FAD5F8E700BEF6E700BF29
:104BB80000ED00E000F00CBC00F010BC2DE9F04165
:104BC800CEB004464C2200210AA80CF08DF9202210
:104BD800002102A80CF088F9BC2200211EA80CF0C4
:104BE80083F9022003F0FCFF2368012B4FF0000338
:104BF80054D0534A02250193C820D16A514B21F061
:104C08000101D162D26A02F0010201929A6942F46A
:104C180040429A619B6903F440430193019B494ACE
:104C280093699B04FCD548490224002201268B6A1B
:104C380004274FF0080823F0030323438B6205235E
:104C480016900AA818934FF4803310961794199465
:104C58001597CDF86880CDE91B222122CDE91344B0
:104C6800CDE90A2304F0A6FC00B1FEE73F220323A6
:104C7800294602A8CDE9022300220823CDE904230E
:104C880040224023CDE9062340234FF48062CDE93A
:104C9800082304F0BDFF0346B8B1FEE7294A0425FE
:104CA8000093F0209169264B41F44041916192694B
:104CB80002F440420092DA6A42F00102DA62DB6AE8
:104CC80003F001030093009BA9E720224FF48051D1
:104CD80025934FF440152B9280222D931EA83093D4
:104CE800269135914FF48071249234920C2233949A
:104CF800439140F2271120921022CDF884802A9700
:104D08001F96CDE92E34CDE93B334FF48033CDE9FE
:104D180022463193002446930623CDE93E45279346
:104D28004FF48063094C2C931E94CDE9281205F0AA
:104D3800AFF900B1FEE703F079FF4EB0BDE8F081AE
:104D48000004005800480258004402580F130F038B
:104D58002DE9F0410D46044684B0D1E9000184E80C
:104D6800030000F0F9FAAE797EB36F4608F0AEFFA3
:104D7800FEF7D2FE08F0FAFB2B79002B4ED16B79A7
:104D88009BB1BFF34F8FBFF36F8F394B0022C3F82E
:104D98005022BFF34F8FBFF36F8F5A6942F400322E
:104DA8005A61BFF34F8FBFF36F8F0022002339463C
:104DB8003048CDE9002308F01DFF2E4808F07CFF9D
:104DC80008F004F804B0BDE8F08120466F46FFF70C
:104DD800F5FE012401F082F94FF040534FF480783A
:104DE80038460193244BADF80040CDE9023801F074
:104DF80093F919224FF0404338468DF80F40ADF82B
:104E08000D808DF801408DF80A608DF80820019317
:104E180001F082F9042001F06FF9A7E7144C002390
:104E2800C4F88430BFF34F8FD4F8803043F6E07E67
:104E3800C3F3C906C3F34E334FEA431C0CEA0E0012
:104E4800334640EA8372013BC4F860225A1CF8D109
:104E5800ACF1200C1CF1200FF0D1BFF34F8F636928
:104E680043F480336361BFF34F8FBFF36F8F86E7DF
:104E780000ED00E0481200240E00010304F0F8BF22
:104E88001C4B9B6803F17842B2F5003F25D3B3F57C
:104E9800803F20D303F16042B2F5003F1FD303F1F6
:104EA8005C42B2F5002F1CD303F17042B2F5902F8B
:104EB80019D303F14842B2F5803F16D303F180427B
:104EC800B2F1806F13D303F1E043B3F5000F2CBFA9
:104ED80008200720704701207047002070470220F3
:104EE800704703207047042070470520704706204C
:104EF800704700BF00ED00E003480023034A04495F
:104F0800036009F0B3BE00BF48120024000000246B
:104F18005D4A000810B4204C0022204B83B0D4F81E
:104F280088101F4841F47001C4F8881019681D4C96
:104F380041F0010119601A61196808401A4918609E
:104F48009A61DA611A629A62DA621A635A639A6338
:104F5800DA631A645A64186820F4802018601A66A4
:104F6800D3F8DC2042F06042C3F8DC20D3F8DC3010
:104F78000193019B23681940B1F1005F03D20B4BE9
:104F88000122C3F80821044B4FF000629A6003B075
:104F98005DF8044B704700BF00ED00E00044025884
:104FA8007FEDF6EA0010005C0000FFFF0080005172
:104FB80000F57171D0F8040407F0F0BAC1EBC10331
:104FC80000EB8303D0F80404D3F8082207F014BBDD
:104FD800C1EBC10300EB8303D0F804049A6C07F01B
:104FE80049BB00BFD0F8040407F0E8BBC16810B59E
:104FF800044619B1022900D0FEE70121D4F80404BF
:1050080007F0C6FBD4F80404BDE8104007F098BBCD
:1050180010B50446D0F8040407F0BEFB2268D2F8A5
:10502800003E43F00103C2F8003E236A23B1034A5D
:10503800136943F00603136110BD00BF00ED00E0E3
:10504800D0F8040407F0B2BBD0F8040407F0C6BBDC
:10505800D0F8040407F0C0BBD0F8040407F0C0BBC4
:10506800D0F8040407F0BEBB9446D0F898021A465C
:1050780008B5634603F0A4FC032802D8024B185C69
:1050880008BD022008BD00BF5C110108D0F89802D5
:1050980008B503F023FD032802D8024B185C08BDAD
:1050A800022008BD5C110108D0F8980208B503F089
:1050B80059FD032802D8024B185C08BD022008BD20
:1050C8005C1101080A06D0F8983206D4C1EBC10178
:1050D80003EB810191F8FE01704701F07F01C1EBFC
:1050E800C10103EB810191F83E007047D0F89802A6
:1050F80008B503F04FFC032802D8024B185C08BD22
:10510800022008BD5C110108D0F8980208B503F028
:10511800BDFC032802D8024B185C08BD022008BD5C
:105128005C110108D0F8980208B503F087FC032841
:1051380002D8024B185C08BD022008BD5C110108AA
:10514800D0F8C00207F0FCBDD0F8C00207F010BECE
:10515800D0F8C00207F018BE704700BFD0F8C002F0
:1051680007F0FEBDD0F8C00207F0FEBDD0F8D003AE
:1051780008B502F08BFD032802D8024B185C08BD65
:10518800022008BD6011010880ED000AC0ED010A87
:1051980080ED021A704700BF024B027853F82200D4
:1051A800704700BF84110108024B427833F812009F
:1051B800704700BF641101088CB00A2814D8DFE8D2
:1051C80000F01523313F4D5B6977859306004D4B01
:1051D800D3F8E02042F48062C3F8E020D3F8E0304E
:1051E80003F480630B930B9B0CB07047454BD3F8CB
:1051F800E02042F00102C3F8E020D3F8E03003F0E9
:1052080001030193019BEFE73E4BD3F8E02042F006
:105218000202C3F8E020D3F8E03003F0020302935F
:10522800029BE1E7374BD3F8E02042F00402C3F8D1
:10523800E020D3F8E03003F004030393039BD3E7A3
:10524800304BD3F8E02042F00802C3F8E020D3F84E
:10525800E03003F008030493049BC5E7294BD3F817
:10526800E02042F01002C3F8E020D3F8E03003F069
:1052780010030593059BB7E7224BD3F8E02042F0D3
:105288002002C3F8E020D3F8E03003F020030693AF
:10529800069BA9E71B4BD3F8E02042F04002C3F875
:1052A800E020D3F8E03003F040030793079B9BE727
:1052B800144BD3F8E02042F08002C3F8E020D3F882
:1052C800E03003F080030893089B8DE70D4BD3F87B
:1052D800E02042F48072C3F8E020D3F8E03003F411
:1052E80080730993099B7FE7064BD3F8E02042F4CB
:1052F8000072C3F8E020D3F8E03003F400730A9397
:105308000A9B71E700440258704700BF0F4B1B7897
:105318000BB90120704710B504464FF47A700C4A57
:10532800B0FBF3F31068B0FBF3F000F0C1FE0F2CF4
:1053380000D808B1012010BD002221464FF0FF30EF
:1053480000F056FE034B00201C6010BD54000024E2
:105358004C0000245800002438B50320124D00F0FA
:1053680035FE124C04F0B4FB114A12499369C3F399
:105378000323CB5C03F01F0320FA03F30F202B60F9
:10538800926902F00F028A5C02F01F02D340236088
:10539800FFF7BCFF10B10124204638BD0446FFF7D3
:1053A800B3FF204638BD00BF4C0000245000002445
:1053B800004402584C110108034A044B11681B7839
:1053C8000B441360704700BF1C19002454000024CC
:1053D800014B1868704700BF1C19002438B50446F3
:1053E800FFF7F6FF0546631C02D0044B1B781C44EC
:1053F800FFF7EEFF431BA342FAD338BD5400002445
:10540800014B1868000C70470010005C704700BF23
:10541800806B08B5FFF7FAFF08BD00BF836B5A6DB4
:1054280012F0500F5A6D10B51DD1196842F4007270
:105438005A650A6812F0080FCA681BD012F4406F48
:105448000DD1CA6894040AD45A6D22F480725A6540
:105458005A6DD10403D45A6D42F001025A651846B8
:10546800FEF7B2F810BDD2060AD4DB6CBDE81040D6
:10547800DB6C18479007E7D01846FEF7A5F8F1E768
:105488001846FEF745F910BD806B08B5436D43F02B
:1054980040034365836D43F004038365FEF738F9E1
:1054A80008BD00BFF0B5002283B0019290F85020EB
:1054B800012A00F01C81034601201A6883F8500075
:1054C8009468640700F18A800C68C4F31305002D02
:1054D80040F08F80C4F38464A0404D684FF01F0EE5
:1054E800D6694FEA951C30430CF00C0CD06105F0DE
:1054F8001F0002F1300584400EFA00FE5CF805003A
:1055080020EA0E0004434CF80540906840076ED42A
:10551800956815F0080547D10C68072002F11406B4
:10552800B94F4FEAD45CC4F304540CF0040C00FAED
:1055380004FE886800FA04F45CF8060020EA0E000D
:1055480020434CF80600386800F07040B0F1805FE6
:1055580000F0C580D068D668C70600F1E880C6F3B9
:1055680082064869760000FA06F60F69042F00F0F3
:10557800C18002F16004086854F827C000F0F840C0
:105588000CF0004C40EA0C00304344F82700487EF9
:105598000E69012854F8260008BF4FF0004520F096
:1055A8000040054344F826509068C40714D4CE68D8
:1055B800086806F01807954CD2F8C050FC40C0F3B4
:1055C8001307044025EA07052C43C2F8C040904C55
:1055D800A64246D0002816DB002003E05A6D42F0B0
:1055E80020025A65002283F8502003B0F0BD90686D
:1055F800DAE794FAA4F5B5FA85F5C4F3846405F0FE
:105608001F05A84069E783498A4200F0B68001F582
:1056180080718A4200F0B1807F4D804CA968A468EF
:1056280001F0E076E44304F00104002C00F0B480BB
:105638007B4CA04200F0FC807A4CA04200F01A811A
:10564800794CA042C8D14902C6D474498A42C3D110
:10565800AA68002022F0E072324342F48002AA6075
:10566800C0E7002F6AD090FAA0F4B4FA84F40134A9
:1056780004F01F04092C00F2A48090FAA0F4B4FAF4
:1056880084F490FAA0F5B5FA85F5013401260135C0
:10569800A40605F01F0504F0F84406FA05F52C43A6
:1056A80090FAA0F0B0FA80F0304400F01F0000EB50
:1056B800400000052043C60D02F11405C0F3045054
:1056C800072406F0040604FA00F7745924EA0704CC
:1056D8008F6807FA00F02043705108687AE7D668A7
:1056E8004869C6F38206760000FA06F63DE702200E
:1056F80003B0F0BD106E0C6800F0F840A506B0EBE2
:10570800846F30D0506E00F0F840854226D0906EFD
:1057180000F0F84085422BD0D06E00F0F84085426A
:105728007FF442AFD06E20F00040D0663CE77608A8
:10573800486906F0080600FA06F616E7800E441CCB
:1057480004F01F06092E2DD8A406012004F0F84401
:10575800B040044306EB46000005ABE7506E20F06E
:1057680000405066D3E7106E20F000401066C9E78D
:10577800906E20F000409066CEE7264C2B4D04F545
:105788008074A96854F8F86CA468344301F0E07692
:10579800E44304F0010448E75A6D012042F0200276
:1057A8005A651FE706EB4600A50601241E3805F0DA
:1057B800F84504FA06F60005354340F00070284322
:1057C80079E790FAA0F5B5FA85F590FAA0F4B4FA5D
:1057D80084F4013501260134AD0604F01F0405F0F8
:1057E800F84506FA04F4254390FAA0F4B4FA84F4D0
:1057F800344404F01F0404EB4404A4F11E00000523
:1058080040F00070DBE700BF0010005CFFFF0F00F6
:105818000000FF4700200240006302580060025861
:10582800000084CB000052C70000B8CF002302401C
:1058380008023FF5D1AE17498A427FF4CDAE164A29
:10584800A9681268154821F0E07192093143A0FB5C
:10585800020241F400019209A96052000192019AE2
:10586800002A3FF4B9AE019A013A0192019A002A3E
:10587800F9D1B1E611F080707FF4AEAE05498A42E5
:105888007FF4AAAEAA6822F0E072324342F0807236
:10589800AA60A7E6006002584C000024632D3E056C
:1058A80003689A68D20701D5002070479968214A91
:1058B800114270B5044608D0636D012043F010030F
:1058C8006365A36D0343A36570BD99681A4A0A40CE
:1058D80042F001029A60FFF77BFD2368174A0546EC
:1058E80093421ED002F5807293421AD0144A9268ED
:1058F800114E0AE09A68324042F001029A60FFF7BE
:1059080067FD401B0228D7D823681A68D2070FD42E
:105918009A68D107EED5FFF75BFD401B0228F3D943
:10592800CAE7084A9268D006E2D0074A9342DFD114
:10593800002070BD3F000080C0FFFF7F00200240B4
:105948000063025800230240002102402DE9F04183
:105958003A4D044600680F461646A84219D0384BFF
:10596800984216D0374DAB688068420716D494F831
:105978005020012A12D003F01F080122B8F1090FA4
:1059880084F850200DD90023012084F85030BDE858
:10599800F0812D4DAB6880684207E8D50220BDE84C
:1059A800F08140F2212323FA08F3DB4313EA0205CE
:1059B800E9D12046FFF774FF002839D1626D234BE7
:1059C8002168134043F480736365B8F1000F02D077
:1059D8001B4B994203D0636D23F480136365636D99
:1059E80013F4805328D0A36D23F00603A365E06C5D
:1059F8003346174D3A464031C563164D0564164D7A
:105A0800C5641C2541F8405C002584F8505051F8C5
:105A18003C5C45F0100541F83C5C00F059FE2268FA
:105A28000E4B91680B4043F004039360BDE8F0818E
:105A380084F85050BDE8F081A365D8E70020024003
:105A4800002102400063025800230240FEF0FFFFDD
:105A5800255400081954000891540008C0FFFF7F1E
:105A680038B503689A68910702D59B68002038BD4D
:105A78009A68D20723D59A68044602F00D02012AD3
:105A880008D0636D012043F010036365A36D0343E1
:105A9800A36538BD986803210A4A024042F0020211
:105AA8009A601960FFF794FC054604E0FFF790FC44
:105AB800401B0228E5D823689B68DB07F6D4002042
:105AC80038BD00BFC0FFFF7F38B5574A044603689A
